:04000000FEEF17F008
:1010D100080101C58AC5881200C58689EC08F0128D
:1010E10000C58289EC08F01200C58089EC08F01275
:1010F10000C58489EC08F012006DEC08F06AEC0878
:10110100F0C9501200016E01C0C9FF89EC08F0124C
:10111100009EA68EEF08F090EF08F089EF08F09E90
:101121009612000F0EC16E1E0E936EF19E8150E05D
:1011310009816E120094869488280EC66E310EC8FD
:101141006EC79CC78E9E96A1961200016E9EA8AC9A
:10115100EF08F0AEEF08F0A7EF08F09E9801C0ADE0
:10116100FF12000A6E000E016E09503EEC09F001FB
:101171000E016E0A503EEC09F01200C08EC09AC0FA
:1011810088C096C090C082C094C292C19AC198C4CE
:101191006AC36AC2801200036E75EC08F0D00E8338
:1011A100EC08F0035083EC08F0025083EC08F0796E
:1011B100EC08F01200948E949CAC9CAC8AAC98AC78
:1011C10096AC84AB8EAB9CAB88B896810EAF6E9E0D
:1011D100989E9A120092EC08F0BEEC08F0DBEC0845
:1011E100F031EC0CF09BEC08F09EEC09F0526A092E
:1011F1000E466E1200026E75EC08F0A00E83EC082C
:10120100F0025083EC08F071EC08F0A10E83EC08B9
:10121100F07DEC08F0036E79EC08F0035012000247
:101221006E75EC08F0D00E83EC08F0025083EC08E8
:10123100F071EC08F0D10E83EC08F07DEC08F003BE
:101241006E79EC08F0035012000B6E0BC001F00236
:101251006A046A0A0E036E84EC0CF001C009F00204
:10126100C00AF00BC001F0026A046A0A0E036EDBC9
:10127100EC0CF00138F00B09101200026E01B044C1
:10128100EF09F047EF09F0828248EF09F0829202FC
:10129100C083FF82848294958E828082928284822E
:1012A1009483BE56EF09F058EF09F04FEF09F08231
:1012B10090959E1200056E75EC08F0A00E83EC0867
:1012C100F0055083EC08F0025083EC08F079EC084B
:1012D100F00B0E046EB80E036E0306D8A0040603CD
:1012E1002806E10428D8A478EF09F07AEF09F06D17
:1012F100EF09F01200076E07C003F0D8900336D84B
:10130100900336C250C30B0310C26EC282C2B28CAC
:10131100EF09F08EEF09F087EF09F0C350C4CF0356
:10132100F0046A03C004F0036A0310056E0450065A
:101331006E05C001F006C002F01200000E10EC09AB
:10134100F0046E04508009026E000ECCEC08F0022D
:101351000E10EC09F0046E0450BF0B026E020ECCAD
:10136100EC08F0930E026E070ECCEC08F0000E10A4
:10137100EC09F0046E04507F0B026E000ECCEC08F9
:10138100F01200D70E036E046AC20E056E4BEC0A12
:10139100F03DACCEEF09F0D0EF09F0E9EF09F03DF7
:1013A100AAD5EF09F0D7EF09F0E1EF09F0F70E0345
:1013B1006E2F0E046EC00E056E4BEC0AF0E9EF09BC
:1013C100F0F40E036E2F0E046EC00E056E4BEC0A88
:1013D100F0120000EF0AF002C0F6FF03C0F7FFF8B9
:1013E1006A050EF76403D00800F55005D0F6CFE981
:1013F100FFF7CFEAFFEF50A6EC08F0024A032A02FA
:10140100C0F6FF03C0F7FFF86A050EF76403D008C2
:1014110000F55005D0F6CFE9FFF7CFEAFFEF500016
:1014210009D8A416EF0AF018EF0AF0ECEF09F01250
:101431000003500410D8B420EF0AF022EF0AF0465E
:10144100EF0AF0010E056E2AEF0AF0D89003360478
:1014510036052A04AE2FEF0AF031EF0AF026EF0A23
:10146100F00350015C04500258D8A03AEF0AF03C56
:10147100EF0AF040EF0AF00350015E0450025AD81F
:101481009004320332052E31EF0AF001C001F0025F
:10149100C002F01200000E016E05503EEC09F0682A
:1014A100EF0AF0010E016E03C0F6FF04C0F7FFF86A
:1014B1006A050EF76403D00800F55005D0F6CFE9B0
:1014C100FFF7CFEAFFEF503EEC09F0034A042A038D
:1014D100C0F6FF04C0F7FFF86A050EF76403D008F1
:1014E10000F55005D0F6CFE9FFF7CFEAFFEF500046
:1014F10009D8A47EEF0AF080EF0AF052EF0AF01249
:1015010000550EF66E160EF76E000EF86E00EE60C8
:10151100F010EE77F00900F5CFEEFFE550E150FA5B
:10152100E1D10EF66E100EF76E000EF86E0900F5A1
:10153100CF55F00900F5CF56F00900F5CF57F0016E
:10154100EE00F0A50EEE6AE806FDE100EED7F00927
:101551000EEE6AE806FDE100EE35F0200EEE6AE8D7
:1015610006FDE1000EF86E00013BEF0DF0066A008A
:101571000E056E03500410D8B4C1EF0AF0C3EF0A90
:10158100F0EBEF0AF0010E076ECBEF0AF0D89003F3
:10159100360436072A04AED0EF0AF0D2EF0AF0C7BC
:1015A100EF0AF0D890053606360350015C0450026C
:1015B10058D8A0DEEF0AF0E0EF0AF0E5EF0AF003F9
:1015C10050015E0450025A0580D89004320332075C
:1015D1002ED2EF0AF005C001F006C002F0120001A0
:1015E1006E0104D8A4F7EF0AF0F9EF0AF01CEF0B33
:1015F100F084EC0EF0546E5428D8B402EF0BF004D2
:10160100EF0BF010EF0BF05750D8B40AEF0BF00CC2
:10161100EF0BF010EF0BF0576A545029EF0BF05419
:1016210028D8A416EF0BF018EF0BF028EF0BF00100
:101631000E576E28EF0BF00150D8A422EF0BF024C7
:10164100EF0BF028EF0BF084EC0EF029EF0BF0FF1D
:031651000E120076
:1016550056696577204C6F672020202000000044E4
:101665006F776E6C6F6164204C6F67000000436C90
:10167500656172204C6F672020200000005365745F
:101685002054696D65202020200000000000000026
:101695000000000000000000000000474E00473138
:1016A50000473200473300473400473500475200B2
:1016B5004320004F4E0020202020202020202020E5
:1016C50020202020202000020E10EC09F03D6E01A4
:1016D5000E10EC09F03E6E000E10EC09F03F6E3D69
:1016E500AC77EF0BF079EF0BF085EF0BF03D380F92
:1016F5000B010B300F0001D76F3D500F0B300FD88A
:101705006F8FEF0BF03D380F0B030B300F0001D738
:101715006F3D500F0B300FD86F3A0ED96F3E380F13
:101725000B0F0B300FDA6F3E500F0B300FDB6F3A9C
:101735000EDC6F3F380F0B0F0B300FDD6F3F500F77
:101745000B300FDE6FDF6B12000E6E156A1550D869
:10175500B4AFEF0BF0B1EF0BF0C7EF0BF01504D8FA
:10176500B4B7EF0BF0B9EF0BF0BEEF0BF00EC011F5
:10177500F0126AC1EF0BF00CC011F0126A11C00F24
:10178500F012C010F0CAEF0BF00DC00FF0106A0F89
:10179500C013F0135025EC09F0146E1550D8A4D6DB
:1017A500EF0BF0D8EF0BF0DBEF0BF014507F0B14C1
:1017B5006E14C002F01550CCEC08F0152A020E1577
:1017C50064E7EF0BF0E9EF0BF0A9EF0BF012006601
:1017D500EC0BF0066A080E0660F3EF0BF0F5EF0B65
:1017E500F000EF0CF00650D70FD96EDA6ADF500221
:1017F5006E4D505BEC09F01BEF0CF00A0E0660060F
:10180500EF0CF008EF0CF016EF0CF05550030DF34C
:1018150050A30F0624D96EDA6ADF50026E4D505B75
:10182500EC09F01BEF0CF044C002F04D505BEC09E5
:10183500F04D2A6D0E4D6422EF0CF024EF0CF025CF
:10184500EF0CF04D6A062A0A0E06642CEF0CF02EFA
:10185500EF0CF0EDEF0BF0424A432A1200956A9423
:1018650050F80B946E8290C30E036ECD0EE82EFEDB
:10187500D7032EFCD70000000E016E330E3EEC0997
:10188500F01B0E036E9E0EE82EFED7032EFCD7002E
:10189500D0000E016E330E3EEC09F0A60EE82EFECA
:1018A500D700D0000E016E330E3EEC09F000D000DB
:1018B500D00000000E016E020E3EEC09F0A60EE807
:1018C5002EFED700D0000E016E380E3EEC09F0A6B4
:1018D5000EE82EFED700D0000E016E010E3EEC097B
:1018E500F0040E036E3E0EE82EFED7032EFCD70045
:1018F5000E016E0C0E3EEC09F0A60EE82EFED7008A
:10190500D01200066A02BE8CEF0CF08AEF0CF09242
:10191500EF0CF0016C021ED8B0022A010E066E040F
:10192500BE99EF0CF097EF0CF09DEF0CF0036C04F3
:101935001ED8B0042A03500410D8B4A4EF0CF0A6A6
:10194500EF0CF0CAEF0CF0010E056EAEEF0CF0D8FF
:101955009003360436052A04AEB3EF0CF0B5EF0C50
:10196500F0AAEF0CF00350015C04500258D8A0BE59
:10197500EF0CF0C0EF0CF0C4EF0CF00350015E0467
:1019850050025AD89004320332052EB5EF0CF006FA
:1019950050D8B4D0EF0CF0D2EF0CF0D6EF0CF0012C
:1019A5006C021ED8B0022A01C001F002C002F0127A
:1019B50000066A04BEE3EF0CF0E1EF0CF0E9EF0C72
:1019C500F0036C041ED8B0042A010E066E02BEF0A8
:1019D500EF0CF0EEEF0CF0F6EF0CF0016C021ED8F8
:1019E500B0022A010E061A086A000E076E0350049B
:1019F50010D8B400EF0DF002EF0DF02AEF0DF00155
:101A05000E056E0AEF0DF0D89003360436052A044C
:101A1500AE0FEF0DF011EF0DF006EF0DF0D89007BA
:101A25003608360350015C04500258D8A01DEF0D4E
:101A3500F01FEF0DF024EF0DF00350015E0450028E
:101A45005A0780D89004320332052E11EF0DF006A7
:101A550050D8B430EF0DF032EF0DF036EF0DF00742
:101A65006C081ED8B0082A07C001F008C002F012A1
:101A750000EBEC08F0010EF0EC0AF0536E52504604
:101A850018D8B448EF0DF04AEF0DF074EF0DF0C61D
:101A95000E036E046A800E056E4BEC0AF0C60E034B
:101AA5006E046AC00E056E4BEC0AF052C046F07427
:101AB500EF0DF01AEC11F03DEF0DF09CEC0FF03D41
:101AC500EF0DF008EC0FF03DEF0DF0F7EC11F03DE8
:101AD500EF0DF09BEC0DF03DEF0DF000EC14F03D3B
:101AE500EF0DF05250336E346A3450000AD8B47E8C
:101AF500EF0DF03DEF0DF03350000AD8B45CEF0D5B
:101B0500F0010AD8B460EF0DF0030AD8B464EF0D04
:101B1500F0010AD8B468EF0DF0070AD8B46CEF0DE0
:101B2500F0010AD8B470EF0DF03DEF0DF0FEEF17A0
:101B3500F039503A103B103C10D8A4A4EF0DF0A694
:101B4500EF0DF0E1EF0DF042504310D8B4ADEF0DBD
:101B5500F0AFEF0DF0CBEF0DF0436A000E426E4D86
:101B65006A9F0E026E2E0E036EEAEC09F0CF0E038D
:101B75006E2F0E046E800E056E4BEC0AF0690E0397
:101B85006E2F0E046EC00E056E4BEC0AF0E1EF0DE4
:101B9500F0E90E026E2E0E036EEAEC09F0360E0326
:101BA5006E2F0E046E800E056E4BEC0AF0030E03CD
:101BB5006E2F0E046EC00E056E4BEC0AF0010E3949
:101BC50026000E3A223B223C223C500DE1A00E3964
:101BD5005C860E3A58010E3B58D8A0F4EF0DF0F68E
:101BE500EF0DF000EF0EF0010E526E000E396E0093
:101BF5000E3A6E000E3B6E000E3C6E12002A342B20
:101C050034316E3150D8A40AEF0EF00CEF0EF016F9
:101C1500EF0EF0000E286E000E296E000E2A6E00E3
:101C25000E2B6E83EF0EF028C02CF029C02DF02A64
:101C3500C02EF02BC02FF0200E26EF0EF0D8902FDF
:101C4500322E322D322C32E82E21EF0EF02C503070
:101C55006E2A8EFF0E2816FF0E2916FF0E2A160075
:101C65000E2B16960E315E31BE3DEF0EF03BEF0E9C
:101C7500F053EF0EF03150800A970FD8B045EF0EB4
:101C8500F047EF0EF049EF0EF00CEF0EF0D8902B69
:101C9500322A3229322832313E49EF0EF06BEF0EEF
:101CA500F01F0E316459EF0EF05BEF0EF063EF0E8F
:101CB500F00CEF0EF0D890283629362A362B36311F
:101CC500063150D8A469EF0EF06BEF0EF05DEF0E04
:101CD500F03050D8B471EF0EF073EF0EF07BEF0ECD
:101CE500F02B1E2A1E291E286C000E29222A222BC3
:101CF5002228C028F029C029F02AC02AF02BC02BA1
:101D0500F01200819A818C818E81B28CEF0EF08E5B
:101D1500EF0EF091EF0EF0010E07EF0FF081B49684
:101D2500EF0EF098EF0EF09BEF0EF0040E07EF0F9D
:101D3500F081B6A0EF0EF0A2EF0EF0A5EF0EF007C2
:101D45000E07EF0FF081B8AAEF0EF0ACEF0EF0AF73
:101D5500EF0EF00A0E07EF0FF0818A819C818E81CC
:101D6500B2B7EF0EF0B9EF0EF0BCEF0EF0020E07B2
:101D7500EF0FF081B4C1EF0EF0C3EF0EF0C6EF0E1A
:101D8500F0050E07EF0FF081B6CBEF0EF0CDEF0E9D
:101D9500F0D0EF0EF0080E07EF0FF081B8D5EF0E7B
:101DA500F0D7EF0EF0DAEF0EF00B0E07EF0FF08124
:101DB5008A818C819E819E81B2E3EF0EF0E5EF0E64
:101DC500F0E8EF0EF0030E07EF0FF081B4EDEF0E24
:101DD500F0EFEF0EF0F2EF0EF0060E07EF0FF081C9
:101DE500B6F7EF0EF0F9EF0EF0FCEF0EF0090E0767
:101DF500EF0FF081B801EF0FF003EF0FF006EF0FD3
:101E0500F00C0E07EF0FF0FF0E120042504310D8F2
:101E1500B40FEF0FF011EF0FF034EF0FF0EBEC1202
:101E2500F0AD0E036E2F0E046E800E056E4BEC0AA0
:101E3500F0C00E096E4B50300FB2EC08F0C10E0920
:101E45006E200EB2EC08F04B500F0D000EF324037C
:101E55006E010EF420046EC20E056E4BEC0AF044C2
:101E6500EF0FF0250E036E2F0E046E800E056E4BE0
:101E7500EC0AF0470E036E2F0E046EC00E056E4B76
:101E8500EC0AF05328D8B44AEF0FF04CEF0FF09B53
:101E9500EF0FF05304D8A452EF0FF054EF0FF05F9B
:101EA500EF0FF04B50D8B45AEF0FF05CEF0FF09BEB
:101EB500EF0FF04B069BEF0FF0020E5318D8A466F8
:101EC500EF0FF068EF0FF08FEF0FF0435007E10AC7
:101ED5000E425CD8B071EF0FF073EF0FF07BEF0F90
:101EE500F0FF0E4224126EFF0E4320136E7EEF0F9D
:101EF500F0136A090E126E4B50106E116A125010D3
:101F05005C13501158D8B08AEF0FF08CEF0FF09B8F
:101F1500EF0FF04B2A9BEF0FF00C0E5318D8A49639
:101F2500EF0FF098EF0FF09BEF0FF0010E526E4B95
:101F35006A12005050D8A4A2EF0FF0A4EF0FF0B32F
:101F4500EF0FF0800E096E7E0EB2EC08F0120E0354
:101F55006E2F0E046EC00E056E4BEC0AF0C8EF0F27
:101F6500F05004D8A4B9EF0FF0BBEF0FF0C8EF0F96
:101F7500F0120E036E2F0E046E800E056E4BEC0AEA
:101F8500F0C00E096E7E0EB2EC08F050504F5C4E5C
:101F95006E4E500F0DF350600F0B6E0BC003F00427
:101FA5006A820E056E4BEC0AF04E500F0DF3506F22
:101FB5000F0B6E0BC003F0046AC20E056E4BEC0AE4
:101FC500F05328D8B4E9EF0FF0EBEF0FF03FEF1027
:101FD500F05304D8A4F1EF0FF0F3EF0FF007EF1073
:101FE500F05050D8B4F9EF0FF0FBEF0FF0FCEF0F06
:101FF500F0506A4F50D8B402EF10F004EF10F03FE4
:10200500EF10F04F063FEF10F0020E5318D8A40E54
:10201500EF10F010EF10F025EF10F05004D8B416C3
:10202500EF10F018EF10F01AEF10F0010E506E03DC
:102035000E4F6020EF10F022EF10F03FEF10F04F41
:102045002A3FEF10F00B0E5318D8A42CEF10F02EEA
:10205500EF10F033EF10F04F50020F526E3FEF10BC
:10206500F00C0E5318D8A43AEF10F03CEF10F03FE7
:10207500EF10F0526A4F6A506A1200096E0950D883
:10208500B447EF10F049EF10F06BEF10F004BE50BD
:10209500EF10F04EEF10F06BEF10F001C005F002FD
:1020A500C006F003C007F004C008F0051E061E07B1
:1020B5001E081E052A000E06220722082205C00B4F
:1020C500F006C00CF007C00DF008C00EF073EF105D
:1020D500F001C00BF002C00CF003C00DF004C00EFF
:1020E500F00150021003100410D8A47CEF10F07E0C
:1020F500EF10F088EF10F0000E016E000E026E007A
:102105000E036E000E046E19EF11F0960E0A6E9214
:10211500EF10F00A2AD8900E320D320C320B320035
:102125000E0B14056E000E0C14066E000E0D140732
:102135006EFE0E0E14086E0550061007100810D816
:10214500A4A7EF10F0A9EF10F08CEF10F0B7EF1087
:10215500F00A2A010E0B26000E0C220D220E22D8A3
:10216500900E320D320C320B32000E0B14056E0040
:102175000E0C14066E000E0D14076EFF0E0E1408DD
:102185006E0550061007100810D8A4CCEF10F0CE3D
:10219500EF10F0ABEF10F0D6EF10F00A06D8900B69
:1021A500360C360D360E360DBEDBEF10F0DDEF10BA
:1021B500F0E5EF10F0020E0A60E3EF10F0E5EF1026
:1021C500F0D0EF10F00AB0EAEF10F0ECEF10F0ED00
:1021D500EF10F00D9ED8900A320AC005F0066A0786
:1021E5006A086A05C008F0076A066A056A05500BA1
:1021F5001206500C1207500D1208500E120950D835
:10220500B407EF11F009EF11F011EF11F004BE1052
:10221500EF11F00EEF11F011EF11F00E8E0BC00162
:10222500F00CC002F00DC003F00EC004F01200AFB8
:102235000E036E2F0E046E820E056E4BEC0AF00433
:102245000E7BEC09F001C044F002C045F0AE0E1360
:102255006E470E146E250E156E410E166E44C001A6
:10226500F045C002F0036A046A000E40EC10F0016C
:10227500C00FF002C010F003C011F004C012F088C6
:10228500EC15F00FC028F010C029F011C02AF0128B
:10229500C02BF001EC0EF028C044F029C045F066D3
:1022A500EC0BF0C2EC09F05550030DF350AB0F32B7
:1022B5006E32C003F0046ACB0E056E4BEC0AF0CE0D
:1022C5000E096E44C001F045C002F0046A0A0E030F
:1022D5006EB7EC0AF00150300FB2EC08F0CF0E09E2
:1022E5006E44C001F045C002F0046A0A0E036E197F
:1022F500EC0AF00150300FB2EC08F05150D8A4862A
:10230500EF11F088EF11F08CEF11F0EAEC0BF00112
:102315000E516E5328D8B492EF11F094EF11F0F6E8
:10232500EF11F05304D8A49AEF11F09CEF11F0B51A
:10233500EF11F05604D8A4A2EF11F0A4EF11F0AA02
:10234500EF11F0566A556AEAEC0BF0F6EF11F0065C
:102355000E5560B0EF11F0B2EF11F0F6EF11F05538
:102365002AA6EF11F0020E5318D8A4BCEF11F0BE47
:10237500EF11F0D3EF11F05604D8A4C4EF11F0C655
:10238500EF11F0C8EF11F0A4EF11F05550D8B4CE0D
:10239500EF11F0D0EF11F0F6EF11F05506A6EF11A1
:1023A500F0030E5318D8A4DAEF11F0DCEF11F0EBBF
:1023B500EF11F0070E5518D8B4E3EF11F0E5EF1162
:1023C500F0F6EF11F0010E566E070E556EA6EF11E1
:1023D500F00B0E5318D8A4F2EF11F0F4EF11F0F64C
:1023E500EF11F0010E526E120042504310D8B4FEA8
:1023F500EF11F000EF12F0A1EF12F0355036103763
:10240500103810D8A409EF12F00BEF12F01FEF12DD
:10241500F0EBEC12F0BE0E036E2F0E046E800E056F
:102425006E4BEC0AF09C0E036E2F0E046EC00E056B
:102435006E4BEC0AF0CBEF12F0680E351809E1BFD0
:102445000E361837103810D8A42BEF12F02DEF12D6
:10245500F081EF12F0AD0E026E2F0E036EEAEC095D
:10246500F0F10E026E2F0E036EEAEC09F0146A57B6
:10247500EF12F01450300FA6EC08F0120E026E2F7A
:102485000E036EEAEC09F014500F0D000EF3240252
:102495006E010EF420036EEAEC09F0F10E026E2FC8
:1024A5000E036EEAEC09F0142A435007E10A0E42C6
:1024B5005CD8B060EF12F062EF12F068EF12F042F4
:1024C500C012F043C013F06BEF12F0136A0A0E123C
:1024D5006E1450106E116A1250105C13501158D8BA
:1024E500A077EF12F079EF12F03CEF12F0C30E0275
:1024F5006E2E0E036EEAEC09F0CBEF12F0500E359E
:102505001809E1C30E361837103810D8A48DEF120C
:10251500F08FEF12F0CBEF12F08B0E036E2F0E043F
:102525006E800E056E4BEC0AF0580E036E2F0E04EE
:102535006EC00E056E4BEC0AF0CBEF12F0200E3597
:102545001809E1030E361837103810D8A4ADEF126C
:10255500F0AFEF12F0CBEF12F0E00E036E2F0E048A
:102565006E800E056E4BEC0AF07A0E036E2F0E048C
:102575006EC00E056E4BEC0AF0C70E026E2E0E03F2
:102585006EEAEC09F0F10E026E2F0E036EEAEC090D
:10259500F0010E3526000E36223722382238500D2E
:1025A500E1400E355C0D0E3658030E3758D8A0DEC7
:1025B500EF12F0E0EF12F0EAEF12F0010E526E00AA
:1025C5000E356E000E366E000E376E000E386E122A
:1025D5000042504310D8B4F2EF12F0F4EF12F0FFBE
:1025E500EF13F0435009E10B0E425CD8A0FDEF124A
:1025F500F0FFEF12F00EEF13F042C001F043C002FE
:10260500F0046A0A0E036E19EC0AF001500B0DF383
:10261500CF4CF00FEF13F04C6A0E6ADDEF13F00F9D
:102625006A080E0F6019EF13F01BEF13F02FEF136D
:10263500F00E500F0D000EF324096E010EF4200A62
:102645006E0F500924D96E000E0A20DA6E4C50FB2D
:10265500EC08F0DF6EAEEF13F0090E0F6035EF13E7
:10266500F037EF13F049EF13F00E500F0D000EF396
:1026750024096E010EF4200A6E0F500924D96E004C
:102685000E0A20DA6E200EDF6EAEEF13F00B0E0F82
:10269500604FEF13F051EF13F065EF13F00E500F8D
:1026A5000D000EF324096E010EF4200A6E0F500979
:1026B50024D96E000E0A20DA6E4C50FBEC08F0DFD0
:1026C5006EAEEF13F00C0E0F606BEF13F06DEF13A2
:1026D500F06FEF13F037EF13F00C0E0F18D8A47648
:1026E500EF13F078EF13F0AEEF13F04C50FBEC085E
:1026F500F00D6E0E500F0D000EF324096E010EF451
:10270500200A6E0F500924D96E000E0A20DA6E0DCC
:10271500C001F0026A046A0A0E036EDBEC0CF001DC
:1027250050300FDF6E0E500F0D010EF324096E01B0
:102735000EF4200A6E0F500924D96E000E0A20DA15
:102745006E0DC001F0026A046A0A0E036E84EC0C79
:10275500F00150300FDF6E080E0F18D8B4B5EF1327
:10276500F0B7EF13F0C1EF13F00B0E0F18D8B4BE8E
:10277500EF13F0C0EF13F0C1EF13F04C2A6D0E4CC0
:1027850064C7EF13F0C9EF13F0CAEF13F04C6A0FEB
:102795002A0C0E0F64D1EF13F0D3EF13F013EF13E0
:1027A500F00E500F0D0E0EF324D96E010EF420DA43
:1027B5006EDF6A0E2A435007E10A0E425CD8B0E686
:1027C500EF13F0E8EF13F0EEEF13F042C00BF04318
:1027D500C00CF0F1EF13F00C6A0A0E0B6E0E5009E7
:1027E5006E0A6A0B50095C0C500A58D8A0FDEF130D
:1027F500F0FFEF13F012EF13F01200140E036E2F1B
:102805000E046E800E056E4BEC0AF00F0E036E2F54
:102815000E046EC00E056E4BEC0AF0020E4718D87A
:10282500A417EF14F019EF14F03EEF14F04150091E
:10283500E1640E405CD8A022EF14F024EF14F03EC2
:10284500EF14F0C40E096E200EB2EC08F0C50E09A7
:102855006E200EB2EC08F0415009E1C80E405CD87C
:10286500A037EF14F039EF14F05AEF14F0416A0075
:102875000E406E5AEF14F0C40E096E4AC001F00204
:102885006A046A0A0E036EDBEC0CF00150300FB2DD
:10289500EC08F0C50E096E4AC001F0026A046A0A26
:1028A5000E036E84EC0CF00150300FB2EC08F0C64C
:1028B5000E096E3A0EB2EC08F04704D8A465EF1481
:1028C500F067EF14F08CEF14F0415009E1640E400D
:1028D5005CD8A070EF14F072EF14F08CEF14F0C711
:1028E5000E096E200EB2EC08F0C80E096E200EB26D
:1028F500EC08F0415009E1C80E405CD8A085EF1402
:10290500F087EF14F0A8EF14F0416A000E406EA8AE
:10291500EF14F0C70E096E49C001F0026A046A0A95
:102925000E036EDBEC0CF00150300FB2EC08F0C872
:102935000E096E49C001F0026A046A0A0E036E842C
:10294500EC0CF00150300FB2EC08F0C90E096E3AEC
:102955000EB2EC08F04750D8A4B3EF14F0B5EF145D
:10296500F0DAEF14F0415009E1640E405CD8A0BEE6
:10297500EF14F0C0EF14F0DAEF14F0CA0E096E2070
:102985000EB2EC08F0CB0E096E200EB2EC08F04149
:102995005009E1C80E405CD8A0D3EF14F0D5EF1470
:1029A500F0F6EF14F0416A000E406EF6EF14F0CA2F
:1029B5000E096E48C001F0026A046A0A0E036EDB56
:1029C500EC0CF00150300FB2EC08F0CB0E096E485C
:1029D500C001F0026A046A0A0E036E84EC0CF00171
:1029E50050300FB2EC08F00F0E036E2F0E046ECCB4
:1029F5000E056E4BEC0AF05304D8A404EF15F0064F
:102A0500EF15F015EF15F0472A020E47640DEF1587
:102A1500F00FEF15F010EF15F0476A416A000E4010
:102A25006E85EF15F0020E5318D8A41CEF15F01E95
:102A3500EF15F05BEF15F04750D8A424EF15F026FD
:102A4500EF15F032EF15F0482A3B0E48642DEF15CF
:102A5500F02FEF15F085EF15F0486A85EF15F04773
:102A650004D8A438EF15F03AEF15F046EF15F04904
:102A75002A3B0E496441EF15F043EF15F085EF153C
:102A8500F0496A85EF15F0020E4718D8A44DEF15E9
:102A9500F04FEF15F085EF15F04A2A170E4A6456E8
:102AA500EF15F058EF15F085EF15F04A6A85EF152B
:102AB500F00B0E5318D8A462EF15F064EF15F075FE
:102AC500EF15F049C00CF048C00DF04A50A7EC0BCB
:102AD500F0010E526E416A000E406E476A4A6A491D
:102AE5006A2FEF15F00C0E5318D8A47CEF15F07E65
:102AF500EF15F085EF15F0010E526E416A000E409C
:102B05006E70EF15F0404A412A12001250800B1FDB
:102B15006E12501224266E11AE93EF15F095EF1537
:102B2500F096EF15F026802650D8B49CEF15F09E50
:102B3500EF15F0B2EF15F02628D8A4A4EF15F0A6EE
:102B4500EF15F0AEEF15F0000E0F6E000E106E00D3
:102B55000E116E000E126E118E126ABAEF15F0008C
:102B65000E0F6E000E106E000E116E000E126E1618
:102B750050800B1F1A16501624276E15AEC5EF157B
:102B8500F0C7EF15F0C8EF15F027802750D8B4CE61
:102B9500EF15F0D0EF15F0E4EF15F02728D8A4D6FF
:102BA500EF15F0D8EF15F0E0EF15F0000E136E00FD
:102BB5000E146E000E156E000E166E158E166AEC4E
:102BC500EF15F0000E136E000E146E000E156E005C
:102BD5000E166E1350141015101610D8A4F5EF1517
:102BE500F0F7EF15F00FEF16F0000E0F6E000E1058
:102BF5006E000E116E000E126E800E11127F0E12F7
:102C0500121F5012120FC00FF010C010F011C0119A
:102C1500F012C012F04EEF17F02650D8A415EF169B
:102C2500F017EF16F021EF16F0000E0F6E000E10E4
:102C35006E000E116E000E126E4EEF17F027502625
:102C4500C017F0186A175E000E185A7F0E17242059
:102C55006E000E1820216E0FC01BF010C01CF01165
:102C6500C01DF012C01EF0000E0F6E000E106E009B
:102C75000E116E000E126E000E226E000E236E00F7
:102C85000E246E000E256E276A81EF16F02750D8A8
:102C9500B44FEF16F051EF16F068EF16F0D8901B11
:102CA500361C361D361E36D8900F361036113612A4
:102CB5003625AE60EF16F062EF16F063EF16F00FF3
:102CC50080D890223623362436253613501B5C14C3
:102CD500501C5815501D5816501E58D8A075EF1683
:102CE500F077EF16F080EF16F0258C13501B5E146D
:102CF500501C5A15501D5A16501E5A272A190E27B0
:102D05006487EF16F089EF16F049EF16F01B501C9B
:102D1500101D101E10D8B492EF16F094EF16F0ACFB
:102D2500EF16F02280ACEF16F0D8900F3610361162
:102D350036123625AEA1EF16F0A3EF16F0A4EF1666
:102D4500F00F80D89022362336243625362006D833
:102D5500A0210611AEB1EF16F0B3EF16F097EF16FE
:102D6500F0276A25AEB9EF16F0BBEF16F0DFEF16C8
:102D7500F0FF0E2214176EFF0E2314186EFF0E249B
:102D850014196E7F0E25141A6E1750181019101A83
:102D950010D8B4D0EF16F0D2EF16F0D6EF16F0013A
:102DA5000E276EDFEF16F00FA0DBEF16F0DDEF1646
:102DB500F0DFEF16F0D2EF16F02750D8B4E5EF1696
:102DC500F0E7EF16F00BEF17F0010E0F26000E10CF
:102DD500221122122212A0F2EF16F0F4EF16F00BD8
:102DE500EF17F00FC017F010C018F011C019F0124E
:102DF500C01AF01A341A3219321832173217C00FA6
:102E0500F018C010F019C011F01AC012F0204A21B4
:102E15002A21BE16EF17F0215008E12028D8A01668
:102E2500EF17F018EF17F023EF17F0000E216E20C3
:102E350068000E0F6E000E106E000E116E000E1261
:102E45006E21BE30EF17F0215006E12004D8B02ED8
:102E5500EF17F030EF17F03CEF17F0216A000E2066
:102E65006E000E0F6E000E106E000E116E000E122B
:102E75006E1F6A20C026F026A043EF17F045EF1716
:102E8500F048EF17F0118E49EF17F0119ED89026F4
:102E950030126E03EF16F01200005375636365730D
:102EA5007366756C6C7920636C656172656420610D
:102EB5006C6C206576656E74206C6F6773200D0AE7
:102EC5000A004E6F206576656E74207072657365B5
:102ED5006E742C20646F776E6C6F61642066616917
:102EE5006C6564004E6F206576656E74206C6F6747
:102EF500732070726573656E74200D0A0A002020B8
:102F0500202070726573656E7420202020200020BB
:102F150020202048483A4D4D3A5353202020200088
:102F250056696577204C6F67204D656E75202020AA
:102F350000204E6F206576656E74206C6F67732078
:102F450020004E6F204C6F672070726573656E743C
:102F550020200020205375636365737366756C6C60
:102F65007920200020207375636365737366756C23
:102F75006C79202000446F776E6C6F616420666108
:102F8500696C65642000446F776E6C6F616465647D
:102F9500206C6F67732000546F2054657261205454
:102FA50065726D202E2E2E00232054494D4520207C
:102FB500202020452020535000446F776E6C6F61B0
:102FC50064696E67206C6F677300436C6561726539
:102FD5006420616C6C206C6F6773004E6F206576A2
:102FE500656E742070726573656E74000D0A00411C
:062FF5004D00504D0000EC
:042FFC0081EF0AF067
:00000001FF
